:020000040800F2
:1000000000000220513C0008053A00080D3A0008A3
:10001000153A00081D3A0008253A000800000000C3
:100020000000000000000000000000002D3A000861
:100030003B3A000800000000493A0008573A00081F
:10004000A13C0008A13C0008A13C0008A13C00081C
:10005000A13C0008A13C0008A13C0008A13C00080C
:10006000A13C0008A13C0008A13C0008A13C0008FC
:10007000A13C0008A13C0008A13C0008A13C0008EC
:10008000A13C0008A13C0008A13C000800000000C1
:10009000000000000000000000000000A13C00087B
:1000A000A13C0008A13C0008A13C0008A13C0008BC
:1000B000A13C0008A13C0008A13C0008A13C0008AC
:1000C000A13C0008A13C0008A13C0008653A0008DA
:1000D000A13C0008793A0008A13C0008000000009B
:1000E000A13C0008A13C0008A13C00080000000061
:1000F000000000000000000000000000A13C00081B
:1001000000000000A13C0008A13C0008A13C000840
:1001100000000000000000000000000000000000DF
:10012000A13C0008A13C0008A13C0008A13C00083B
:10013000A13C0008000000000000000000000000DA
:100140000000000000000000000000008D3A0008E0
:10015000A13C0008A13C0008A13C0008A13C00080B
:10016000A13C0008A13C00080000000000000000C5
:10017000000000000000000000000000000000007F
:1001800000000000A13C000800000000000000008A
:08019000A13C0008A13C00089D
:1001A00010B5054C237833B9044B13B10448AFF3B1
:1001B00000800123237010BDEC020020000000002D
:1001C0002832010808B5034B1BB103490348AFF3BC
:1001D000008008BD00000000F00200202832010865
:1001E00001F0FF01102A2BDB10F0070F08D010F8E8
:1001F000013B013A8B422DD010F0070F42B3F6D1EC
:10020000F0B441EA012141EA014122F007047FF004
:1002100000070023F0E80256083C85EA010586EA5B
:10022000010685FA47F5A3FA87F586FA47F6A5FA97
:1002300087F68EB9EED1F0BC01F0FF0102F00702A3
:1002400032B110F8013B013A83EA010313B1F8D14E
:100250000020704701387047002D06BF354603382F
:10026000073815F0010F07D1013015F4807F02BF68
:10027000013015F4C03F0130F0BC0138704700BFB9
:10028000034613F8012B002AFBD1181A01387047D6
:1002900081F0004102E000BF83F0004330B54FEA37
:1002A00041044FEA430594EA050F08BF90EA020FA4
:1002B0001FBF54EA000C55EA020C7FEA645C7FEA37
:1002C000655C00F0E2804FEA5454D4EB5555B8BF5A
:1002D0006D420CDD2C4480EA020281EA030382EACB
:1002E000000083EA010180EA020281EA0303362D5D
:1002F00088BF30BD11F0004F4FEA01314FF4801C30
:100300004CEA113102D0404261EB410113F0004F41
:100310004FEA03334CEA133302D0524263EB4303F8
:1003200094EA050F00F0A780A4F10104D5F1200E96
:100330000DDB02FA0EFC22FA05F2801841F10001F1
:1003400003FA0EF2801843FA05F359410EE0A5F1C5
:1003500020050EF1200E012A03FA0EFC28BF4CF0F6
:10036000020C43FA05F3C01851EBE37101F00045AC
:1003700007D54FF0000EDCF1000C7EEB00006EEBB9
:100380000101B1F5801F1BD3B1F5001F0CD3490843
:100390005FEA30004FEA3C0C04F101044FEA44529A
:1003A00012F5800F80F09A80BCF1004F08BF5FEA21
:1003B000500C50F1000041EB045141EA050130BD01
:1003C0005FEA4C0C404141EB0101013C28BFB1F513
:1003D000801FE9D291F0000F04BF01460020B1FA5E
:1003E00081F308BF2033A3F10B03B3F120020CDA31
:1003F0000C3208DD02F1140CC2F10C0201FA0CF00F
:1004000021FA02F10CE002F11402D8BFC2F1200C73
:1004100001FA02F120FA0CFCDCBF41EA0C01904029
:10042000E41AA2BF01EB0451294330BD6FEA040472
:100430001F3C1CDA0C340EDC04F11404C4F120025D
:1004400020FA04F001FA02F340EA030021FA04F36F
:1004500045EA030130BDC4F10C04C4F1200220FAC6
:1004600002F001FA04F340EA0300294630BD21FA04
:1004700004F0294630BD94F0000F83F4801306BFCA
:1004800081F480110134013D4EE77FEA645C18BFBE
:100490007FEA655C29D094EA050F08BF90EA020F55
:1004A00005D054EA000C04BF1946104630BD91EA4D
:1004B000030F1EBF0021002030BD5FEA545C05D150
:1004C0004000494128BF41F0004130BD14F580048F
:1004D0003CBF01F5801130BD01F0004545F0FE4103
:1004E00041F470014FF0000030BD7FEA645C1ABF38
:1004F000194610467FEA655C1CBF0B46024650EA6F
:10050000013406BF52EA033591EA030F41F400219A
:1005100030BD00BF90F0000F04BF0021704730B520
:100520004FF4806404F132044FF000054FF00001F5
:1005300050E700BF90F0000F04BF0021704730B5B6
:100540004FF4806404F1320410F0004548BF40428B
:100550004FF000013EE700BF42004FEAE2014FEAE0
:1005600031014FEA02701FBF12F07F4393F07F4FBB
:1005700081F06051704732F07F4208BF704793F0BE
:100580007F4F04BF41F40021704730B54FF46074D1
:1005900001F0004521F000411CE700BF50EA0102D4
:1005A00008BF704730B54FF000050AE050EA01027D
:1005B00008BF704730B511F0004502D5404261EBED
:1005C00041014FF4806404F132045FEA915C3FF42E
:1005D000D8AE4FF003025FEADC0C18BF03325FEACB
:1005E000DC0C18BF033202EBDC02C2F1200300FA7C
:1005F00003FC20FA02F001FA03FE40EA0E0021FAA1
:1006000002F11444BDE600BF70B54FF0FF0C4CF48E
:10061000E06C1CEA11541DBF1CEA135594EA0C0F40
:1006200095EA0C0F00F0DEF82C4481EA030621EA7B
:100630004C5123EA4C5350EA013518BF52EA0335B6
:1006400041F4801143F4801338D0A0FB02CE4FF068
:100650000005E1FB02E506F00042E0FB03E54FF098
:100660000006E1FB03569CF0000F18BF4EF0010E90
:10067000A4F1FF04B6F5007F64F5407404D25FEA8C
:100680004E0E6D4146EB060642EAC62141EA55513F
:100690004FEAC52040EA5E504FEACE2EB4F1FD0C81
:1006A00088BFBCF5E06F1ED8BEF1004F08BF5FEAFF
:1006B000500E50F1000041EB045170BD06F00046B1
:1006C00046EA010140EA020081EA0301B4EB5C045E
:1006D000C2BFD4EB0C0541EA045170BD41F4801156
:1006E0004FF0000E013C00F3AB8014F1360FDEBF7B
:1006F000002001F0004170BDC4F10004203C35DA57
:100700000C341BDC04F11404C4F1200500FA05F3D9
:1007100020FA04F001FA05F240EA020001F000427A
:1007200021F0004110EBD37021FA04F642EB0601F0
:100730005EEA430E08BF20EAD37070BDC4F10C041A
:10074000C4F1200500FA04F320FA05F001FA04F2DE
:1007500040EA020001F0004110EBD37041F10001CA
:100760005EEA430E08BF20EAD37070BDC4F12005D5
:1007700000FA05F24EEA020E20FA04F301FA05F23D
:1007800043EA020321FA04F001F0004121FA04F2E5
:1007900020EA020000EBD3705EEA430E08BF20EAB5
:1007A000D37070BD94F0000F0FD101F000464000EF
:1007B00041EB010111F4801F08BF013CF7D041EA71
:1007C000060195F0000F18BF704703F00046520075
:1007D00043EB030313F4801F08BF013DF7D043EA46
:1007E0000603704794EA0C0F0CEA135518BF95EAFC
:1007F0000C0F0CD050EA410618BF52EA4306D1D183
:1008000081EA030101F000414FF0000070BD50EAA1
:10081000410606BF1046194652EA430619D094EA2B
:100820000C0F02D150EA013613D195EA0C0F05D115
:1008300052EA03361CBF104619460AD181EA030169
:1008400001F0004141F0FE4141F470014FF0000021
:1008500070BD41F0FE4141F4780170BD70B54FF0BC
:10086000FF0C4CF4E06C1CEA11541DBF1CEA13553C
:1008700094EA0C0F95EA0C0F00F0A7F8A4EB05041E
:1008800081EA030E52EA03354FEA013100F0888015
:100890004FEA03334FF0805545EA131343EA1263DE
:1008A0004FEA022245EA111545EA10654FEA002693
:1008B0000EF000419D4208BF964244F1FD0404F54C
:1008C000407402D25B084FEA3202B61A65EB0305A8
:1008D0005B084FEA32024FF480104FF4002CB6EB65
:1008E000020E75EB030E22BFB61A754640EA0C00E5
:1008F0005B084FEA3202B6EB020E75EB030E22BF25
:10090000B61A754640EA5C005B084FEA3202B6EB65
:10091000020E75EB030E22BFB61A754640EA9C0024
:100920005B084FEA3202B6EB020E75EB030E22BFF4
:10093000B61A754640EADC0055EA060E18D04FEAB2
:10094000051545EA16754FEA06164FEAC30343EA52
:1009500052734FEAC2025FEA1C1CC0D111F4801F1F
:100960000BD141EA00014FF000004FF0004CB6E718
:1009700011F4801F04BF01430020B4F1FD0C88BFB7
:10098000BCF5E06F3FF6AFAEB5EB030C04BFB6EBC2
:10099000020C5FEA500C50F1000041EB045170BDB5
:1009A0000EF0004E4EEA113114EB5C04C2BFD4EBE2
:1009B0000C0541EA045170BD41F480114FF0000E66
:1009C000013C90E645EA060E8DE60CEA135594EAE2
:1009D0000C0F08BF95EA0C0F3FF43BAF94EA0C0FE5
:1009E0000AD150EA01347FF434AF95EA0C0F7FF45A
:1009F00025AF104619462CE795EA0C0F06D152EAAE
:100A000003353FF4FDAE1046194622E750EA410691
:100A100018BF52EA43067FF4C5AE50EA41047FF4A2
:100A20000DAF52EA43057FF4EBAE12E74FF0FF3C07
:100A300006E000BF4FF0010C02E000BF4FF0010CD8
:100A40004DF804CD4FEA410C7FEA6C5C4FEA430C51
:100A500018BF7FEA6C5C1BD001B050EA410C0CBFA0
:100A600052EA430C91EA030F02BF90EA020F002002
:100A7000704710F1000F91EA030F58BF994208BF69
:100A800090422CBFD8176FEAE37040F00100704726
:100A90004FEA410C7FEA6C5C02D150EA013C07D17D
:100AA0004FEA430C7FEA6C5CD6D152EA033CD3D0C8
:100AB0005DF8040B704700BF8446104662468C46C2
:100AC0001946634600E000BF01B5FFF7B7FF0028F5
:100AD00048BF10F1000F01BD4DF808EDFFF7F4FF1E
:100AE0000CBF012000205DF808FB00BF4DF808EDA9
:100AF000FFF7EAFF34BF012000205DF808FB00BFCC
:100B00004DF808EDFFF7E0FF94BF012000205DF8ED
:100B100008FB00BF4DF808EDFFF7CEFF94BF0120A2
:100B200000205DF808FB00BF4DF808EDFFF7C4FF9B
:100B300034BF012000205DF808FB00BF4FEA410CE4
:100B40007FEA6C5C02D150EA013C0AD14FEA430CC7
:100B50007FEA6C5C02D152EA033C02D14FF0000004
:100B600070474FF0010070474FEA410212F5001242
:100B700015D211D56FF47873B3EB625212D94FEAE4
:100B8000C12343F0004343EA505311F0004F23FACE
:100B900002F018BF404270474FF00000704750EA23
:100BA000013005D111F0004008BF6FF000407047E0
:100BB0004FF00000704700BF4A0011D212F500123A
:100BC00011D20DD56FF47873B3EB62520ED44FEAA5
:100BD000C12343F0004343EA505323FA02F0704725
:100BE0004FF00000704750EA013002D14FF0FF3063
:100BF00070474FF0000070474FEA4102B2F1E04306
:100C000024BFB3F5001CDCF1FE5C0DD901F0004CF3
:100C10004FEAC0024CEA5070B2F1004F40EB830043
:100C200008BF20F00100704711F0804F21D113F16F
:100C30003872BCBF01F00040704741F480114FEAA8
:100C40005252C2F11802C2F1200C10FA0CF320FA31
:100C500002F018BF40F001004FEAC1234FEAD3234E
:100C600003FA0CFC40EA0C0023FA02F34FEA4303B8
:100C7000CCE77FEA625307D150EA01331EBF4FF041
:100C8000FE4040F44000704701F0004040F0FE405C
:100C900040F40000704700BF80F0004002E000BF59
:100CA00081F0004142001FBF5FEA410392EA030F57
:100CB0007FEA226C7FEA236C6AD04FEA1262D2EBA1
:100CC0001363C1BFD218414048404140B8BF5B42A6
:100CD000192B88BF704710F0004F40F4000020F03F
:100CE0007F4018BF404211F0004F41F4000121F055
:100CF0007F4118BF494292EA030F3FD0A2F101029F
:100D000041FA03FC10EB0C00C3F1200301FA03F1DC
:100D100000F0004302D5494260EB4000B0F5000FFF
:100D200013D3B0F1807F06D340084FEA310102F1BE
:100D30000102FE2A51D2B1F1004F40EBC25008BF70
:100D400020F0010040EA03007047490040EB00003A
:100D5000013A28BFB0F5000FEDD2B0FA80FCACF13B
:100D6000080CB2EB0C0200FA0CF0AABF00EBC25068
:100D700052421843BCBFD0401843704792F0000F56
:100D800081F4000106BF80F400000132013BB5E7A9
:100D90004FEA41037FEA226C18BF7FEA236C21D01F
:100DA00092EA030F04D092F0000F08BF0846704784
:100DB00090EA010F1CBF0020704712F07F4F04D152
:100DC000400028BF40F00040704712F100723CBF65
:100DD00000F50000704700F0004343F0FE4040F48F
:100DE000000070477FEA226216BF08467FEA23634D
:100DF0000146420206BF5FEA412390EA010F40F438
:100E0000800070474FF0000304E000BF10F0004383
:100E100048BF40425FEA000C08BF704743F096436A
:100E200001464FF000001CE050EA010208BF704785
:100E30004FF000030AE000BF50EA010208BF70470C
:100E400011F0004302D5404261EB41015FEA010C21
:100E500002BF84460146002043F0B64308BFA3F119
:100E60008053A3F50003BCFA8CF2083AA3EBC253FB
:100E700010DB01FA02FC634400FA02FCC2F120021A
:100E8000BCF1004F20FA02F243EB020008BF20F051
:100E90000100704702F1200201FA02FCC2F12002B7
:100EA00050EA4C0021FA02F243EB020008BF20EAAC
:100EB000DC70704753B94AB9002908BF00281CBF2D
:100EC0004FF0FF314FF0FF3000F0BEB9ADF1080C2C
:100ED0006DE904CE00F03CF8DDF804E0DDE9022322
:100EE00004B0704738B50022002304460D46FFF7D2
:100EF000FDFD28B920462946BDE8384000F00AB873
:100F0000204605F1004100F005F8404261EB410147
:100F100038BD00BFD0B50C4B002206460F46FFF788
:100F200073FBFFF749FE0446FFF7F4FA074B002274
:100F3000FFF76AFB02460B4630463946FFF7ACF92D
:100F4000FFF73AFE2146D0BD0000F03D0000F04121
:100F50002DE9F047089D8E4604468846002B4AD16D
:100F60008A42174662D9B2FA82F64EB1C6F1200320
:100F700001FA06F820FA03F3B74043EA0808B44040
:100F80004FEA174E1FFA87FCB8FBFEF1230C0EFB4D
:100F9000118843EA084301FB0CF29A4209D9FB1875
:100FA00001F1FF3080F0EA809A4240F2E780023996
:100FB0003B449A1AA3B2B2FBFEF00EFB102243EAA6
:100FC000024300FB0CFC9C4509D9FB1800F1FF32E1
:100FD00080F0D6809C4540F2D3803B44023840EA02
:100FE0000140A3EB0C0300211DB1F3400022C5E931
:100FF0000032BDE8F0878B4205D90DB1C5E900018B
:1010000000210846F5E7B3FA83F1002946D173457C
:1010100002D3824200F20581841A6EEB03020120A2
:101020009046002DE5D0C5E90048E2E7002A00F02F
:101030009080B2FA82F6002E40F0A4808A1A030C47
:101040004FEA174E80B2BCB20121B2FBFEFC0EFB90
:101050001C2243EA024304FB0CF29A4207D9FB1814
:101060000CF1FF3802D29A4200F2E080C4469B1A8B
:10107000B3FBFEF20EFB123340EA034302FB04F41F
:101080009C4207D9FB1802F1FF3002D29C4200F2C9
:10109000CA8002461B1B42EA0C40A5E7C1F12006AC
:1010A0008B4022FA06F71F430EFA01F420FA06F3EA
:1010B0002EFA06FE4FEA1749234300FA01F81FFAF9
:1010C00087FCBEFBF9F01C0C09FB10EE44EA0E4451
:1010D00000FB0CFEA64502FA01F209D93C1900F109
:1010E000FF3A80F09C80A64540F2998002383C444B
:1010F000A4EB0E041FFA83FEB4FBF9F309FB1344BF
:101100004EEA044403FB0CFCA44508D93C1903F146
:10111000FF3E80F08280A4457FD9023B3C4443EAF5
:101120000040A4EB0C04A0FB02EC64457346E146CE
:1011300062D35FD05DB1B8EB030264EB090404FA3B
:1011400006F622FA01F31E43CC40C5E900640021F3
:101150004FE7B1FBF2FC010C41EA0E4180B240EADC
:1011600001423B4638463C46B846BE462026B1FBC7
:10117000F7F1A2EB080241EA0C4166E7014618E7E5
:1011800010462CE7C6F120022EFA02F3B740B14018
:1011900020FA02F24FEA174E0A43B3FBFEF8BCB244
:1011A0000EFB1833110C41EA034108FB04F9B0406F
:1011B00089454FEA104380B23ED9791808F1FF3CC7
:1011C00001D289451FD8A1EB0901B1FBFEF909FB4A
:1011D00004F80EFB191192B242EA0142424529D2AB
:1011E000BA1809F1FF31C4D24245C2D2A9F10201B5
:1011F0003A44BEE7F0459DD2BEEB02036CEB070C10
:101200000138E14696E7A7EB09094944A8F1020C29
:10121000B1FBFEF909FB04F8DBE773467FE75046B4
:1012200066E70846FDE63B44023A33E7ACF1020CC0
:101230003B441CE749469CE7A1EB0901C446B1FBCE
:10124000FEF909FB04F8C4E7704700BF80B500AFA2
:1012500000221021034803F0C7F9012002F094FD99
:1012600000BF80BD0000024080B500AF0122102108
:10127000034803F0B9F9012002F086FD00BF80BDEC
:101280000000024080B586B002AF0346FB71FB79D7
:1012900003F07F03DBB23B7300237B73FFF7D6FFC2
:1012A00007F1080207F10C016423009302230548AB
:1012B00007F02DF8FFF7D8FF7B7A18461037BD46A8
:1012C00080BD00BF7C04002080B584B000AF034621
:1012D0000A46FB711346BB71FB7963F07F03DBB2F7
:1012E0003B73BB797B73FFF7B1FF07F10C016423FC
:1012F0000222044806F0C7FEFFF7B6FF00BF103712
:10130000BD4680BD7C04002080B500AF00220121D5
:10131000074803F069F90A2002F036FD0122012195
:10132000034803F061F90A2002F02EFD00BF80BDE2
:101330000004024080B400AF044B1B6840F2DC5252
:101340005A6300BFBD465DF8047B7047D40400209B
:1013500080B400AF044B1B684FF4FA625A6300BFBD
:10136000BD465DF8047B7047D404002080B500AF13
:10137000FFF7CAFF80210120FFF7A6FF0A2002F035
:1013800003FD81210120FFF79FFF0A2002F0FCFCF2
:101390006C210620FFF798FF80210720FFF794FFBC
:1013A00000210820FFF790FF8F210920FFF78CFF15
:1013B00023210C20FFF788FF00210E20FFF784FF78
:1013C00000210F20FFF780FF72211D20FFF77CFF17
:1013D00074211E20FFF778FF04212620FFF774FFF9
:1013E00000212020FFF770FF08212120FFF76CFF6C
:1013F00034213920FFF768FF40214020FFF764FFC8
:10140000FF211220FFF760FF81210120FFF75CFF21
:101410000A2002F0B9FC00BF80BD000080B58CB08E
:1014200002AF1E2387F8233007F1230264230093C1
:101430000123EC21254803F065FA142002F0A4FCF6
:1014400000237B623AE07B6A5133DBB25B00DBB2A4
:1014500087F8233007F12302642300930123EC2152
:101460001A4803F04FFA07F1200264230093022385
:10147000EC21164803F044FB97F820301BB21B0206
:101480001AB297F821301BB213431AB27B6A0133A8
:1014900091B20F4A22F813107B6A5A1C7B6A0133FF
:1014A0000B4931F8133038460A490EF0D1FC3B465F
:1014B000184600F0EFFE7B6A01337B627B6A052BE6
:1014C000C1DD00BF00BF2837BD4680BD2804002015
:1014D000640300204032010880B489B000AF87ED7A
:1014E000010AC7ED000A814B93ED007A804BD3EDE2
:1014F000007A27EE277AD7ED007AF6EE006A67EEDB
:10150000A66A7B4BD3ED007A66EEA76A784BD3EDE3
:10151000007A66EEA77A37EE277A764BD3ED007A1B
:1015200077EE277A734BC3ED007A714B93ED007A17
:10153000D7ED007A27EE277A6C4BD3ED007A77EE61
:10154000277A6A4BC3ED007A6B4B93ED007A6A4BB6
:10155000D3ED027A77EEA76A674B93ED036A644B8B
:10156000D3ED007A66EE277A76EEA76A604BD3ED6C
:10157000007A66EEA76A614BD3ED007A76EEA77A21
:1015800077EE277A5C4BC3ED007A5B4B93ED017AE3
:10159000594BD3ED036A564BD3ED007A66EEA77A2A
:1015A00077EE277A544BC3ED017A534B93ED027AD1
:1015B000514BD3ED036A4E4BD3ED007A66EEA77A1A
:1015C00077EE277A4C4BC3ED027A4B4B93ED037ABF
:1015D0004A4BD3ED037A77EE277A474BC3ED037A74
:1015E000444BD3ED007A97ED017A77EE677AC7ED39
:1015F000077A414B93ED007A414BD3ED007A77EEB9
:10160000277AC7ED067A3C4BD3ED006A97ED067A50
:10161000C6EE877AC7ED057A374BD3ED026A97EDB0
:10162000067AC6EE877AC7ED047A97ED057AD7ED8C
:10163000077A27EE277A2F4BD3ED007A77EE277AB9
:101640002C4BC3ED007A97ED047AD7ED077A27EE9D
:10165000277A264BD3ED007A77EE277A234BC3ED1A
:10166000007A254B1B68FB60234B5B68BB60224BF9
:1016700093ED007AD7ED056AD7ED037A66EEA77A87
:1016800077EE677A1C4BC3ED007A1B4B93ED017A22
:10169000D7ED056AD7ED027A66EEA77A77EE677A1C
:1016A000154BC3ED017A144B93ED027AD7ED046A22
:1016B000D7ED037A66EEA77A77EE677A0E4BC3ED25
:1016C000027A0D4B93ED037AD7ED046AD7ED027AD7
:1016D00066EEA77A77EE677A074BC3ED037A00BF11
:1016E0002437BD465DF8047B704700BF0C03002023
:1016F000240000200803002000000020100000202B
:10170000200000202DE9B04FF0B002AF482387F849
:10171000533107F25312642300930123EC21C44890
:1017200003F0F0F80F2002F02FFB002387F853316D
:1017300007F25312642300930123EC21BC4803F009
:10174000E1F807F5AA730322002118460EF0E5FB25
:1017500007F5AA72642300930323EC21B44803F035
:10176000CFF997F854311A0497F855311B021A43F0
:1017700097F856311343C7F88C31582387F8533103
:1017800007F25312642300930123EC21A84803F0CD
:10179000B9F80F2002F0F8FA002387F8533107F266
:1017A0005312642300930123EC21A14803F0AAF80B
:1017B00007F5AA730322002118460EF0AEFB07F5C9
:1017C000AA72642300930323EC21994803F098F94B
:1017D00097F854311A0497F855311B021A4397F8B9
:1017E00056311343C7F88831D7F88C31002B00F0FD
:1017F0009083D7F88831002B00F08B838D4AD7F87F
:101800008C3113608C4AD7F8883113608A4B1B687F
:101810000022C7F80031C7F80421884B5B899BB2CE
:1018200000221C4615464FF000024FF000032B0229
:1018300043EA14632202D7E940452146891AC7F8D2
:10184000A010294661EB0303C7F8A430D7E9283478
:10185000C7E96034794B9B899BB20022C7F8F83006
:10186000C7F8FC20D7F88031D7E93E452A4602FB6D
:1018700003F2D7F88431214601FB03F31A44D7F869
:1018800080312146A3FB0113C7F84C310B46C7F842
:101890004831D7F84C31D318C7F84C31D7E9522327
:1018A000002B09DA66495118C7F8981043F1000374
:1018B000C7F89C30D7E926234FF000004FF0000115
:1018C000D00D40EA4320D91502460B4612F5FA61C5
:1018D000C7F8901043F10003C7F89430D7E92434D7
:1018E000C7E96C34554B9B889BB20022C7F8F03097
:1018F000C7F8F420D7E93C120B461B0CC7F8EC30B4
:101900000B461B04C7F8E8304C4B1B899BB20022E6
:10191000C7F8E030C7F8E420D7F88031D7E9384578
:101920002A4602FB03F2D7F88431214601FB03F378
:101930001A44D7F880312146A3FB0113C7F844317C
:101940000B46C7F84031D7F84431D318C7F84431B3
:10195000D7E95023002B09DA12F17F01C7F888106C
:1019600043F10003C7F88C30D7E922234FF0000081
:101970004FF00001D00940EA4360D91102460B46FE
:10198000D7E93A4521468918C7F88010294643EB24
:101990000101C7F88410D7E92034C7E96A34274B1E
:1019A0005B889BB20022C7F8D830C7F8DC204FF024
:1019B00000044FF00005D7E936121346DD030B464D
:1019C00045EA53450B46DC031C4BDB889BB20022E7
:1019D000C7F83831C7F83C21D7F88031D7E94E0134
:1019E0000A4602FB03F2D7F88431C7E94E010146EB
:1019F00001FB03F31A44D7F88031D7F83811A3FB61
:101A00000113C7F834310B46C7F83031D7F83431F9
:101A1000D318C7F83431D7E94C23002B12DA12F16E
:101A2000FF01B96743F10003FB67D7E91E2309E013
:101A300028040020740300207803002064030020A1
:101A4000FFFF7F004FF000004FF00001100A40EA56
:101A50000360191202460B46A118396745EB0303D0
:101A60007B67D7E91C34C7E96834D7E96C23B2F542
:101A7000FA6F73F1000380F2B081D7F88421D7F8B0
:101A8000803103FB02F1D7F88421D7F8803102FBC3
:101A900003F3CA18D7F88031A3FB0313C7F82C311E
:101AA0000B46C7F82831D7F82C31D318C7F82C319A
:101AB000D7E94A23002B08DA6FF000415118B966C4
:101AC00043F10003FB66D7E91A234FF000004FF003
:101AD0000001D00F40EA4300D917C7E95E01D7E9FA
:101AE0006C23B2F5FA61396643F1FF337B66D7E9BF
:101AF0001834C7E95C34D7F87421D7F8703103FB88
:101B000002F1D7F87421D7F8703102FB03F3CA1839
:101B1000D7F87031A3FB0313C7F824310B46C7F87D
:101B20002031D7F82431D318C7F82431D7E94845F4
:101B300022462B464FF000004FF00001990041EA89
:101B40009271900002460B4621465118C7F8D010FA
:101B5000294643EB0101C7F8D4104FF000024FF0C3
:101B60000003D7E934452946CA0F002321465118FE
:101B7000B965294643EB0101F9654FF000024FF0CA
:101B80000003D7E9164521464A08294642EAC172B0
:101B900029464B10C7E96623D7F87421D7F870316E
:101BA00003FB02F1D7F87421D7F8703102FB03F37D
:101BB000CA18D7F87031A3FB0313C7F81C310B46C2
:101BC000C7F81831D7F81C31D318C7F81C31D7E93A
:101BD000464522462B464FF000004FF00001990089
:101BE00041EA9271900002460B4621465118C7F80F
:101BF000C810294643EB0101C7F8CC10D7E93223BE
:101C0000002B06DAD11C396543F100037B65D7E967
:101C100014234FF000004FF00001900840EA837059
:101C20009910C7E96401D7E96C23BD498A4273F171
:101C3000FF3380F2AB80D7E96C2340F2DC515118BE
:101C4000B96443F10003FB64D7E91234C7E95A349D
:101C5000D7F86C21D7F8683103FB02F1D7F86C2173
:101C6000D7F8683102FB03F3CA18D7F86831A3FB31
:101C70000313C7F814310B46C7F81031D7F81431E5
:101C8000D318C7F81431D7E9444522462B464FF004
:101C900000004FF00001D90041EA5271D000024625
:101CA0000B462146511AC7F8C010294663EB0103C1
:101CB000C7F8C430D7E96623D7E930452146511823
:101CC0003964294643EB01017964D7E91034C7E947
:101CD0006634D7F86C21D7F8683103FB02F1D7F8E6
:101CE0006C21D7F8683102FB03F3CA18D7F86831C2
:101CF000A3FB03AB02EB0B039B4652465B469118DA
:101D0000B9635B41FB63D7E90E2312EB0A0843EB8F
:101D10000B094FF000024FF000034FEA890343EA3A
:101D200098734FEA880290469946B8EB0A03C7F8C1
:101D3000B83069EB0B03C7F8BC304FF000024FF02E
:101D40000003D7E92E452946CA0F00232146511822
:101D50003963294643EB010179634FF000024FF0EC
:101D60000003D7E90C4521464A08294642EAC172D8
:101D700029464B1010461946D7E964231418BC6253
:101D80004B41FB62D7E90A34C7E96434D7E96C01F7
:101D9000D7E95E23841A3C6261EB03037B62D7E9D7
:101DA0000834C7E96C34D7E96A01D7E96623841A95
:101DB000BC6161EB0303FB61D7E90634C7E96A3410
:101DC000D7E96801D7E96423841A3C6161EB030316
:101DD0007B61D7E90434C7E96834524B1B680022A1
:101DE000C7F8B030C7F8B420D7F8A031D7E92C45F0
:101DF0002A4602FB03F2D7F8A431214601FB03F384
:101E00001344D7F8A0212146A2FB0112C7F80C21E8
:101E10000A46C7F80821D7F80C211344C7F80C313B
:101E2000D7E94223002B07DA3F495118B96043F143
:101E30000003FB60D7E902234FF000004FF00001E0
:101E4000500D40EAC3205915D7E96A23841AC7F810
:101E5000A84061EB0303C7F8AC30D7E92A23002B75
:101E600008DA47F6FF715118396043F100037B60CF
:101E7000D7E900234FF000004FF00001D00B40EAFB
:101E80004340D913C7E95801D7E96C01FEF7D4FFE5
:101E900006EE900A9FED257AC6EE877AC7ED577A4F
:101EA000D7E95801FEF7C8FF06EE900A9FED1F7AAA
:101EB000C6EE877AC7ED567AD7ED567A9FED1C7A33
:101EC000F4EEC77AF1EE10FA24DDD7ED567A9FEDE5
:101ED000197AF4EEC77AF1EE10FA1BD5D7ED577ADE
:101EE0009FED157AF4EEC77AF1EE10FA12DDD7ED18
:101EF000577A9FED127AF4EEC77AF1EE10FA09D50F
:101F00000F4AD7F85C3113600E4AD7F85831136086
:101F100000E000BF07F5DC77BD46BDE8B08F00BF2D
:101F200024FAFFFF74030020FFFF1F000000C842D7
:101F30000000964300808944000020C20000AA42AD
:101F4000800300207C03002080B58EB000AF012309
:101F500087F837301CE097F837309BB25B0099B2B6
:101F60000A2301220F4803F029FB0346002B0AD164
:101F700097F837203B1D0C4918460DF069FF3B1DB3
:101F8000184600F087F997F83730013387F8373073
:101F900097F93730002BDEDA00BF00BF3837BD4677
:101FA00080BD00BF280400204C320108B0B584B0C9
:101FB00000AF87ED010A97ED017ADFED1C6AC7EEED
:101FC000267AFDEEE77A17EE903AFB60FB68642212
:101FD00002FB03F307EE903AF8EEE77A97ED017A09
:101FE00077EE677AC7ED027AF868FEF7A3FA04463F
:101FF0000D46B868FEF7B0FA4FF000020C4BFEF742
:102000002DFC02460B4620462946FEF747F90246BC
:102010000B4610461946FEF7EFFD034607EE903AD1
:10202000B0EE670A1037BD46B0BD00BF0000C84221
:1020300000004E4080B5AAB000AF78600622744917
:1020400078680DF072FF0346002B08D00622714914
:1020500078680DF06AFF0346002B40F0D48007F14A
:1020600008037F22796818460DF071FF002387F876
:1020700087300023C7F8A0304FF00003C7F89C302A
:102080004FF00003C7F898304E2387F89730452368
:1020900087F896300023C7F890300023C7F88C30BB
:1020A0004FF00003C7F8883007F108035A49184673
:1020B0000DF060FFC7F8A40066E0D7F8A030013348
:1020C000C7F8A030D7F8A030033B072B56D801A2A1
:1020D00052F823F0F5200008112100081D21000806
:1020E0003921000845210008532100087D210008FE
:1020F00061210008D7F8A4000CF0F6FA53EC102B7D
:1021000010461946FEF778FD0346C7F89C3035E0C7
:10211000D7F8A4301B7887F897302FE0D7F8A400C1
:102120000CF0E2FA53EC102B10461946FEF764FD52
:102130000346C7F8983021E0D7F8A4301B7887F819
:1021400096301BE0D7F8A4000CF0D1FAC7F8900045
:1021500014E0D7F8A4000CF0CAFAC7F88C000DE020
:10216000D7F8A4000CF0C0FA53EC102B1046194617
:10217000FEF742FD0346C7F8883000BF264900201D
:102180000DF0F8FEC7F8A400D7F8A430002B94D1C6
:10219000224AD7F88C301360214AD7F89030136068
:1021A000D7F89030002B2FDD1E4AD7F88830136007
:1021B00097ED270AFFF7FAFEF0EE407A1A4BC3EDCF
:1021C000007A97ED260AFFF7F1FEF0EE407A174B02
:1021D000C3ED007A97F89730532B07D1124BD3ED0C
:1021E000007AF1EE677A104BC3ED007A97F89630DB
:1021F000572B09D10D4BD3ED007AF1EE677A0B4BDB
:10220000C3ED007A00E000BFA837BD4680BD00BF27
:102210006832010870320108783201081004002089
:102220001404002024040020180400201C040020B2
:1022300080B586B004AF0023FB71642302930123B1
:102240000193FB1D009301236B22D021044802F06F
:1022500089FE322001F098FD00BF0837BD4680BDE1
:102260002804002080B584B004AF642302930E23B9
:102270000193064B009301233B22D021044802F036
:102280006BFF03461846BD4680BD00BF1803002003
:102290002804002080B582B000AF7860094B93F825
:1022A0009C32DBB2032B08D17868FDF7E9FF0346C7
:1022B0009BB2194678680BF0C5FD00BF0837BD46D4
:1022C00080BD00BF7C05002080B59AB002AF4220DF
:1022D000FEF7D8FF034687F85F3097F85F203B1D75
:1022E000524918460DF0B4FD3B1D1846FFF7D2FFCA
:1022F0000120FEF7C7FF034687F85E3097F85E209F
:102300003B1D4B4918460DF0A3FD3B1D1846FFF73A
:10231000C1FF0620FEF7B6FF034687F85D300720B1
:10232000FEF7B0FF034687F85C300820FEF7AAFFEF
:10233000034687F85B3097F85D2097F85C1097F8B4
:102340005B30381D00930B463A490DF081FD3B1D73
:102350001846FFF79FFF0920FEF794FF034687F812
:102360005A3097F85A203B1D334918460DF070FD3E
:102370003B1D1846FFF78EFF0C20FEF783FF034638
:1023800087F8593097F859203B1D2C4918460DF015
:102390005FFD3B1D1846FFF77DFF1D20FEF772FF16
:1023A000034687F858301E20FEF76CFF034687F877
:1023B00057302620FEF766FF034687F8563097F819
:1023C000582097F8571097F85630381D00930B4651
:1023D0001B490DF03DFD3B1D1846FFF75BFF392003
:1023E000FEF750FF034687F8553097F855203B1D00
:1023F000144918460DF02CFD3B1D1846FFF74AFF07
:102400004020FEF73FFF034687F8543097F85420EA
:102410003B1D0D4918460DF01BFD3B1D1846FFF7EF
:1024200039FF00BF6037BD4680BD00BF7C32010868
:1024300094320108A8320108C0320108D4320108E0
:10244000E4320108183301082C33010880B588B044
:1024500000AF0023FB610023BB6100237B610023ED
:102460003B610023FB600023BB6000237B600023F3
:102470003B6043E0FFF7F6FE0346002B38D1394BB3
:102480001B781B02374A52781343FA691344FB61E5
:10249000344B9B781B02334AD2781343BA691344F6
:1024A000BB61304B1B791B022E4A527913437A6968
:1024B00013447B612B4B1B7A1B022A4A527A13432B
:1024C0003A6913443B61274B9B7A1B02254AD27A17
:1024D0001343FA681344FB60224B1B7B1B02214A07
:1024E000527B1343BA681344BB607B6801337B6043
:1024F000052001F049FC3B6801333B603B68B3F5C4
:10250000FA6FB7DB7B68002B03D11748FFF7C2FED9
:1025100025E0FA697B6892FBF3F3144A1360BA6909
:102520007B6892FBF3F3124A13607A697B6892FB33
:10253000F3F3A3F500530F4A13603A697B6892FBEB
:10254000F3F30D4A1360FA687B6892FBF3F30B4ACE
:102550001360BA687B6892FBF3F3094A1360203773
:10256000BD4680BD18030020443301083403002019
:10257000380300203C0300204003002044030020D7
:102580004803002080B594B000AF78600B46FB7024
:10259000FA7807F10C03304918460DF059FC07F1A1
:1025A0000C031846FFF776FE00224FF400512B482B
:1025B00002F01AF881210120FEF786FEFF21122089
:1025C000FEF782FE00210E20FEF77EFE00210D2088
:1025D000FEF77AFE002387F84F300DE097F84F3072
:1025E0007A6813441B7819460020FEF76DFE97F8B1
:1025F0004F30013387F84F3097F84F20FB789A42DD
:10260000ECD3FB7819462220FEF75EFE83210120E1
:10261000FEF75AFE00BF1220FEF734FE034603F019
:102620000803002BF7D001224FF400510B4801F0B2
:10263000DBFF322001F0A8FB0948FFF72BFE082141
:102640001220FEF741FE81210120FEF73DFE00BF72
:102650005037BD4680BD00BF5C3301080008024012
:10266000703301082DE9F04FADF51B7D1AAF01F075
:1026700019FB00F0C7FD00F05FFF00F02DFE0BF02E
:1026800023FB00F02FFF00F055FE00F089FE002133
:102690007F4806F087FAFEF74DFE4FF47A7001F09E
:1026A00073FBFFF7C5FDFFF7C3FD002387F8E93192
:1026B000642302930123019307F2E913009301239A
:1026C0001B22D021734802F04DFC082387F8E83123
:1026D000642302930123019307F5F473009301230C
:1026E0001C22D0216B4802F03DFC032387F8E73120
:1026F000642302930123019307F2E713009301235C
:102700001A22D021634802F02DFC642001F03CFB2A
:102710006148FFF7BFFD6148FFF7BCFDFFF796FE7C
:102720005F48FFF7B7FDFFF70FFC4FF4FA7001F0B9
:102730002BFB584802F0B6F80A2001F025FB00F008
:10274000CBFD642001F020FBFEF768FEC82001F0FD
:102750001BFB4220FEF796FD034687F8EB3197F806
:10276000EB2107F5DA734F4918460DF071FB07F5B9
:10277000DA731846FFF78EFDFEF7F8FD642001F0CE
:1027800003FB4948FFF786FDFFF79EFD4748FFF72B
:1027900081FD4FF00003C7F8FC310023C7F8F83182
:1027A0000023C7F8F4312BE0FEF7ACFF404BD3ED2C
:1027B000007A9FED407AF4EEC77AF1EE10FA17DD59
:1027C0003B4BD3ED007A9FED3C7AF4EEC77AF1EE05
:1027D00010FA0DD5364BD3ED007A97ED7F7A77EE70
:1027E000277AC7ED7F7AD7F8F8310133C7F8F83187
:1027F000142001F0C9FAD7F8F4310133C7F8F431E5
:10280000D7F8F431C72BCFDDD7F8F8310A2B0ADD22
:10281000D7F8F83107EE903AB8EEE77AD7ED7F6A4D
:10282000C6EE877A01E0DFED257A254BC3ED007A0D
:10283000244B4FF000021A60214B1B681846FDF72D
:102840008BFE02460B4607F5B270D7F8F8110091DF
:102850001D490DF0FDFA07F5B2731846FFF71AFD92
:1028600001221A491A4806F0B9FF64230322D02135
:10287000084802F0A3FE0346002B2DD01548FFF7B1
:1028800009FD4FF47A7001F07FFA00F09EBC00BFA2
:10289000D40400202804002080330108A433010858
:1028A000BC330108D0330108E8330108FC330108C8
:1028B0007C030020000096430080894400507D4442
:1028C0008803002090030020243401088C0300209A
:1028D0001C05002048340108FFF7C4FC0346002B08
:1028E00040F018818F4B1B781BB21B021AB28D4B24
:1028F0005B781BB213431BB29AB28B4B1B689BB223
:10290000D31A9BB21AB2894B1A80864B9B781BB2A2
:102910001B021AB2834BDB781BB213431BB29AB271
:10292000834B1B689BB2D31A9BB21AB2814B1A809D
:102930007C4B1B791BB21B021AB27A4B5B791BB220
:1029400013431BB29AB27C4B1B689BB2D31A9BB247
:102950001AB27A4B1A80734B1B7A1BB21B021AB243
:10296000704B5B7A1BB213431BB29AB2744B1B6859
:102970009BB2D31A9BB21AB2724B1A80694B9B7AE4
:102980001BB21B021AB2674BDB7A1BB213431BB29A
:102990009AB26D4B1B689BB2D31A9BB21AB26B4BA7
:1029A0001A80604B1B7B1BB21B021AB25D4B5B7B18
:1029B0001BB213431BB29AB2654B1B689BB2D31A6E
:1029C0009BB21AB2634B1A80584BB3F9003007EE32
:1029D000903AB8EEE77ADFED606AC7EE267A5F4B91
:1029E000C3ED007A534BB3F9003007EE903AB8EEDE
:1029F000E77ADFED596AC7EE267A594BC3ED007AC4
:102A00004E4BB3F9003007EE903AB8EEE77ADFEDBF
:102A1000526AC7EE267A534BC3ED007A494BB3F99D
:102A2000003007EE903AB8EEE77ADFED4F6AC7EE76
:102A3000267A4E4BC3ED007A444BB3F9003007EED3
:102A4000903AB8EEE77ADFED486AC7EE267A484B4F
:102A5000C3ED007A3F4BB3F9003007EE903AB8EE81
:102A6000E77ADFED416AC7EE267A424BC3ED007A82
:102A7000414BD3ED007A9FED417A27EE877A3B4BAD
:102A8000D3ED007ADFED3E6A67EEA67A77EE277A1D
:102A9000394BC3ED007A3B4BD3ED007A9FED377A8B
:102AA00027EE877A324BD3ED007ADFED356A67EE99
:102AB000A67A77EE277A334BC3ED007A324BD3ED0B
:102AC000007A9FED2E7A27EE877A2A4BD3ED007A93
:102AD000DFED2B6A67EEA67A77EE277A2A4BC3EDF5
:102AE000007A254B1B68214A1360264B1B68204A3D
:102AF0001360254B1B681F4A1360FEF703FE234B30
:102B0000D3ED007A9FED227AF4EEC77AF1EE10FA57
:102B100042DCA4E01F48FFF7BDFBC82001F034F9F8
:102B200053E300BF180300203403002026030020D5
:102B300038030020280300203C0300202A03002043
:102B4000400300202C030020440300202E0300201B
:102B50004803002030030020000000464C03002002
:102B600050030020540300200000034358030020BA
:102B70005C03002060030020640500206666663F59
:102B8000CDCCCC3D680500206C0500207C030020E6
:102B90000000964358340108BE4BD3ED007A9FEDF8
:102BA000BE7AF4EEC77AF1EE10FA58D5BB4BD3EDEE
:102BB000007A9FEDBB7AF4EEC77AF1EE10FA4EDDA3
:102BC000B44B93ED007AB54BD3ED007AC7EE276A8C
:102BD000DFEDB40AB0EE660A0FF05EFFF0EE407A69
:102BE000B7EE007A77EE677A9FEDAF7A67EE877A75
:102BF000C7ED7C7AD7ED7C7AF0EEE77A9FEDAB7A81
:102C0000F4EEC77AF1EE10FA03D54FF00003C7F8DF
:102C1000F03197ED7C7AD7ED7C7AB4EE677AF1EEFD
:102C200010FA1CD6D7ED7C7AF0EEE77A9FEDA07A09
:102C3000F4EE477AF1EE10FA11DC9E4BD3ED007AF8
:102C40009FED9D7A27EE877AD7ED7C7ADFED9B6A40
:102C500067EEA67A77EE277A964BC3ED007A984B0B
:102C6000D3ED007A9FED977A67EE877A9FED957A9C
:102C700077EEC77AC7ED7B7AD7ED7B7AF0EEE77A0D
:102C80009FED917AF4EEC77AF1EE10FA03D54FF08A
:102C90000003C7F8EC31874BD3ED007AD7ED7B0A00
:102CA000B0EE670AFEF718FC884BD3ED007AF0EE21
:102CB000E77A9FED877AF4EEC77AF1EE10FA03D542
:102CC000824B4FF000021A60824B1B78002B12D10E
:102CD0007B4BD3ED007AF5EEC07AF1EE10FA0AD80C
:102CE0007C4B01221A7001F043F803467A4A1360C4
:102CF0007A48FFF7CFFA774B1B78002B0BD0784B35
:102D00001B78002B07D1FEF723FB754B01221A70AD
:102D10007448FFF7BFFA744B1B681846FDF71CFC9C
:102D2000C7E91001714B1B681846FDF715FCC7E990
:102D30000E01634B1B681846FDF70EFCC7E90C013A
:102D40006B4B1B681846FDF707FCC7E90A01694B86
:102D50001B681846FDF700FCC7E90801664B1B68B5
:102D60001846FDF7F9FBC7E906014A4B1B681846F0
:102D7000FDF7F2FBC7E90401604B1B681846FDF73D
:102D8000EBFBC7E902015E4B1B681846FDF7E4FB4D
:102D9000C7E900015B4B1B681846FDF7DDFB824667
:102DA0008B46594B1B681846FDF7D6FB8046894673
:102DB000564B1B681846FDF7CFFB04460D46544B97
:102DC0001E68424B1B681846FDF7C6FB02460B46C1
:102DD00007F16800CDE918231696CDE91445CDE931
:102DE0001289CDE910AB97ED007B8DED0E7B97ED51
:102DF000027B8DED0C7B97ED047B8DED0A7B97EDCF
:102E0000067B8DED087B97ED087B8DED067B97EDBE
:102E10000A7B8DED047B97ED0C7B8DED027B97EDAE
:102E20000E7B8DED007BD7E910233A490DF010F8A9
:102E300007F168031846FFF72DFA002387F8EA31F7
:102E4000354B1B885A1C91B2334A1180A7F8623166
:102E50002B4BD3ED007A9FED317A67EE877AFDEE4A
:102E6000E77A17EE903A1BB2A7F86031174BD3ED13
:102E7000007A9FED2A7A67EE877AFDEEE77A17EE01
:102E8000903A1BB2A7F85E31024BD3ED007AB2EE56
:102E9000047A45E07C0300200080894488030020F8
:102EA0000000964301DE423E002A2D479A99993E42
:102EB000FFFF7F7F840300203333733FCDCC4C3D35
:102EC00054030020C3F51C410AD7A33D0C03002086
:102ED0008FC2F53C10030020140300206C3401085D
:102EE00011030020783401084C0300205003002017
:102EF000580300205C0300206003002080030020B2
:102F000008030020180400201C04002024040020D2
:102F10001004002088340108200400200000C8426A
:102F200067EE877AFCEEE77A17EE903A9BB2A7F845
:102F30005C31A74BD3ED007A9FEDA67A67EE877AD6
:102F4000FDEEE77A17EE903A1BB2A7F85A31A24B82
:102F5000D3ED007AB2EE047A67EE877AFDEEE77A77
:102F600017EE903A1BB2A7F858319C4BD3ED007A7C
:102F7000B2EE047A67EE877AFDEEE77A17EE903AC2
:102F80001BB2A7F85631964BD3ED007AB2EE047A15
:102F900067EE877AFDEEE77A17EE903A1BB2A7F854
:102FA0005431904BD3ED007A9FED8A7A67EE877AA1
:102FB000FDEEE77A17EE903A1BB2A7F852318A4B32
:102FC000D3ED007A9FED837A67EE877AFDEEE77A9C
:102FD00017EE903A1BB2A7F85031844BD3ED007A2C
:102FE0009FED7C7A67EE877AFDEEE77A17EE903AEE
:102FF0001BB2A7F84E317E4BD3ED007A9FED7D7A60
:1030000067EE877AFDEEE77A17EE903AC7F8483117
:10301000794BD3ED007A9FED777A67EE877AFDEEF4
:10302000E77A17EE903AC7F8443197F8EA3107F19A
:1030300048021344B7F862211A8097F8EA31023344
:1030400087F8EA3197F8EA3107F148021344B7F8F4
:1030500060211A8097F8EA31023387F8EA3197F84D
:10306000EA3107F148021344B7F85E211A8097F855
:10307000EA31023387F8EA3197F8EA3107F148027A
:103080001344B7F85C211A8097F8EA31023387F8C5
:10309000EA3197F8EA3107F148021344B7F85A21A8
:1030A0001A8097F8EA31023387F8EA31534B1968EE
:1030B00097F8EA315A1C87F8EA211A46C9B207F58F
:1030C0000073A3F5DC7399544D4B196897F8EA31F6
:1030D0005A1C87F8EA211A46C9B207F50073A3F50E
:1030E000DC73995497F8EA3107F148021344B7F8B2
:1030F00058211A8097F8EA31023387F8EA3197F8B5
:10310000EA3107F148021344B7F856211A8097F8BC
:10311000EA31023387F8EA3197F8EA3107F14802D9
:103120001344B7F854211A8097F8EA31023387F82C
:10313000EA3197F8EA3107F148021344B7F852210F
:103140001A8097F8EA31023387F8EA3197F8EA31C2
:1031500007F148021344B7F850211A8097F8EA3172
:10316000023387F8EA3197F8EA3107F1480213444D
:10317000B7F84E211A8097F8EA31023387F8EA311E
:1031800097F8EA3107F148021344D7F848211A604A
:1031900097F8EA31043387F8EA3197F8EA3107F112
:1031A00048021344D7F844211A6097F8EA310433EF
:1031B00087F8EA3197F8EA2107F1480311461846E3
:1031C000FFF7E0F9C82000F0DFFDFFF74EBB00BFBE
:1031D000800300200000C842580300205C03002048
:1031E000600300204C030020500300205403002003
:1031F0001804002000401C461C040020100400207D
:103200001404002080B594B000AF07F120033022F1
:10321000002118460CF081FE07F10C0300221A6011
:103220005A609A60DA601A610023BB60284B1B6CFD
:10323000274A43F080531364254B1B6C03F08053E3
:10324000BB60BB6800237B60224B1B68214A43F4B0
:10325000404313601F4B1B6803F440437B607B6853
:1032600002233B620123FB6210233B630223BB6307
:103270000023FB6310233B644FF4A8737B64042397
:10328000BB640723FB6407F12003184604F01AFA15
:103290000346002B01D000F021FA0F23FB6002232C
:1032A0003B6100237B614FF48053BB610023FB61D2
:1032B00007F10C030221184604F07CFC0346002BA6
:1032C00001D000F00BFA00BF5037BD4680BD00BFF3
:1032D000003802400070004080B500AF124B134A26
:1032E0001A60114B124A5A600F4B00229A600E4B23
:1032F0000022DA600C4B4FF480421A610A4B002224
:103300005A61094B00229A61074B0022DA61064B91
:1033100000221A62044801F081F90346002B01D013
:1033200000F0DCF900BF80BD2804002000540040FC
:10333000A086010080B500AF174B184A1A60164BE3
:103340004FF482725A60144B00229A60124B002292
:10335000DA60114B00221A610F4B00225A610E4BAA
:103360004FF400729A610C4B1022DA610A4B002272
:103370001A62094B00225A62074B00229A62064BDE
:103380000A22DA62044804F0F5FD0346002B01D05E
:1033900000F0A4F900BF80BD7C0400200030014093
:1033A00080B596B000AF07F1480300221A605A605A
:1033B0009A60DA6007F1400300221A605A6007F150
:1033C000240300221A605A609A60DA601A615A6116
:1033D0009A613B1D2022002118460CF09EFD3F4BB8
:1033E0003F4A1A603D4B53225A603C4B00229A6080
:1033F0003A4B44F61F62DA60384B00221A61374BB1
:1034000000225A61354B00229A61344805F022FBB4
:103410000346002B01D000F061F94FF48053BB64E8
:1034200007F1480319462D4805F02EFD0346002BF1
:1034300001D000F053F9294805F05BFB0346002B4F
:1034400001D000F04BF900233B6400237B6407F1BB
:1034500040031946214806F0B1F80346002B01D07D
:1034600000F03CF960237B624FF47A73BB62002367
:10347000FB6200233B6300237B630023BB630023C9
:10348000FB6307F1240300221946144805F03AFCB7
:103490000346002B01D000F021F900237B600023BC
:1034A000BB600023FB6000233B6100237B614FF482
:1034B0000053BB6100233B623B1D1946074806F0E1
:1034C000EBF80346002B01D000F008F9034800F0A8
:1034D0000FFA00BF5837BD4680BD00BFD40400209E
:1034E0000000014080B500AF114B124A1A60104B2A
:1034F0004FF4E1325A600E4B00229A600C4B0022CE
:10350000DA600B4B00221A61094B0C225A61084BFE
:1035100000229A61064B0022DA61054806F00EF996
:103520000346002B01D000F0D9F800BF80BD00BFDA
:103530001C0500200010014080B58AB000AF07F1E3
:10354000140300221A605A609A60DA601A6100233C
:103550003B61414B1B6B404A43F0040313633E4BFA
:103560001B6B03F004033B613B690023FB603A4B98
:103570001B6B394A43F080031363374B1B6B03F01B
:103580008003FB60FB680023BB60334B1B6B324A3C
:1035900043F001031363304B1B6B03F00103BB606B
:1035A000BB6800237B602C4B1B6B2B4A43F0020350
:1035B0001363294B1B6B03F002037B607B680022C3
:1035C0004FF40051254801F00FF800221021244843
:1035D00001F00AF800220121224801F005F84FF419
:1035E00000537B610123BB610023FB6100233B622D
:1035F00007F114031946194800F08EFD10237B6172
:103600000123BB610023FB6100233B6207F114032C
:103610001946134800F080FD01237B610123BB6143
:103620000023FB6100233B6207F1140319460D4898
:1036300000F072FD02237B614FF48813BB6100230D
:10364000FB6107F114031946064800F065FD00BF51
:103650002837BD4680BD00BF003802400008024048
:10366000000002400004024080B582B000AF7860E4
:103670007B681B68144A934221D1144B1B780A2B98
:103680000DD0134B1B68762B09DC114B1B685A1CA1
:103690000F490A600D4A11780E4AD1540AE00C4BCA
:1036A0001B680C4A0021D154094B00221A600948BA
:1036B000FEF7C0FC01220549074806F08FF800BF5D
:1036C0000837BD4680BD00BF001001408C030020BC
:1036D0000C040020940300201C05002080B400AFDF
:1036E00072B600BF00BFFDE780B483B000AF002317
:1036F0007B60104B5B6C0F4A43F4804353640D4B6B
:103700005B6C03F480437B607B6800233B60094B68
:103710001B6C084A43F080531364064B1B6C03F088
:1037200080533B603B6800BF0C37BD465DF8047BAF
:10373000704700BF0038024080B58AB000AF7860A3
:1037400007F1140300221A605A609A60DA601A6165
:103750007B681B68194A93422BD100233B61184BAD
:103760001B6B174A43F002031363154B1B6B03F0EB
:1037700002033B613B69C0237B611223BB610023D1
:10378000FB6103233B6204237B6207F114031946A8
:103790000C4800F0C1FC0023FB60094B1B6C084A7D
:1037A00043F400131364064B1B6C03F40013FB601B
:1037B000FB6800BF2837BD4680BD00BF00540040F5
:1037C000003802400004024080B582B000AF78604B
:1037D0007B681B680A4A93420DD10A4B1B6C094A4D
:1037E00023F4001313644021074800F019FE8021E0
:1037F000054800F015FE00BF0837BD4680BD00BF7C
:1038000000540040003802400004024080B58AB0F5
:1038100000AF786007F1140300221A605A609A60C2
:10382000DA601A617B681B681D4A934233D100231A
:103830003B611C4B5B6C1B4A43F480535364194B34
:103840005B6C03F480533B613B690023FB60154BC9
:103850001B6B144A43F001031363124B1B6B03F001
:103860000103FB60FB68E0237B610223BB61002353
:10387000FB6103233B6205237B6207F114031946B6
:10388000094800F049FC00220021232000F07BFBC6
:10389000232000F094FB00BF2837BD4680BD00BF49
:1038A00000300140003802400000024080B485B082
:1038B00000AF78607B681B680B4A93420DD10023F0
:1038C000FB600A4B5B6C094A43F001035364074BEE
:1038D0005B6C03F00103FB60FB6800BF1437BD465F
:1038E0005DF8047B704700BF0000014000380240D3
:1038F00080B588B000AF786007F10C0300221A6031
:103900005A609A60DA601A617B681B68124A9342B7
:103910001ED10023BB60114B1B6B104A43F0010307
:1039200013630E4B1B6B03F00103BB60BB684FF4CA
:103930008073FB6002233B6100237B610023BB613A
:103940000123FB6107F10C031946054800F0E4FB75
:1039500000BF2037BD4680BD000001400038024056
:103960000000024080B58AB000AF786007F1140310
:1039700000221A605A609A60DA601A617B681B68DC
:103980001D4A934234D100233B611C4B5B6C1B4AA4
:1039900043F010035364194B5B6C03F010033B615D
:1039A0003B690023FB60154B1B6B144A43F001037A
:1039B0001363124B1B6B03F00103FB60FB684FF4B6
:1039C00004437B610223BB610023FB6103233B6251
:1039D00007237B6207F114031946094800F09CFB9A
:1039E00000220021252000F0CEFA252000F0E7FA81
:1039F00000BF2837BD4680BD00100140003802409E
:103A00000000024080B400AF00BFFDE780B400AF0B
:103A100000BFFDE780B400AF00BFFDE780B400AF9A
:103A200000BFFDE780B400AF00BFFDE780B400AF8A
:103A300000BFBD465DF8047B704780B400AF00BF97
:103A4000BD465DF8047B704780B400AF00BFBD4643
:103A50005DF8047B704780B500AF00F075F900BFDA
:103A600080BD000080B500AF024804F0F9FD00BF42
:103A700080BD00BF7C04002080B500AF024805F087
:103A8000D3FE00BF80BD00BF1C05002080B500AF85
:103A9000024802F009FD00BF80BD00BF581A002097
:103AA00080B400AF01231846BD465DF8047B704723
:103AB00080B582B000AF786039600CF001FB03463E
:103AC00016221A604FF0FF3318460837BD4680BDF6
:103AD00080B582B000AF78604FF0FF317868FFF7B3
:103AE000E7FF00BFFDE780B586B000AFF860B960C2
:103AF0007A6000237B610AE0AFF300800146BB6877
:103B00005A1CBA60CAB21A707B6901337B617A6948
:103B10007B689A42F0DB7B6818461837BD4680BD4B
:103B200080B586B000AFF860B9607A6000237B6131
:103B300009E0BB685A1CBA601B781846AFF30080D6
:103B40007B6901337B617A697B689A42F1DB7B6830
:103B500018461837BD4680BD80B483B000AF78608A
:103B60004FF0FF3318460C37BD465DF8047B7047B5
:103B700080B483B000AF786039603B684FF4005286
:103B80005A60002318460C37BD465DF8047B704729
:103B900080B483B000AF7860012318460C37BD466F
:103BA0005DF8047B704780B485B000AFF860B96001
:103BB0007A60002318461437BD465DF8047B7047D1
:103BC00080B586B000AF7860144A154BD31A7B617C
:103BD0007B693B61134B1B68002B02D1114B124ACE
:103BE0001A60104B1A687B6813443A699A4207D2EC
:103BF0000CF066FA03460C221A604FF0FF3309E01E
:103C0000084B1B68FB60074B1A687B681344054A26
:103C10001360FB6818461837BD4680BD00000220BF
:103C20000004000070050020A822002080B400AF2E
:103C3000064BD3F88830054A43F47003C2F8883045
:103C400000BFBD465DF8047B704700BF00ED00E09B
:103C5000DFF834D0FFF7EAFF0C480D490D4A002386
:103C600002E0D458C4500433C4188C42F9D30A4A31
:103C70000A4C002301E013600432A242FBD30CF093
:103C800025FAFEF7EFFC704700000220000000203C
:103C9000EC020020203A0108EC020020A8220020BB
:103CA000FEE7000080B500AF0E4B1B680D4A43F4E1
:103CB000007313600B4B1B680A4A43F48063136064
:103CC000084B1B68074A43F480731360032000F01D
:103CD0004FF90F2000F008F8FFF706FD0023184603
:103CE00080BD00BF003C024080B582B000AF78606C
:103CF000124B1A68124B1B7819464FF47A73B3FBB8
:103D0000F1F3B2FBF3F3184600F067F90346002B1A
:103D100001D001230EE07B680F2B0AD800227968BE
:103D20004FF0FF3000F02FF9064A7B681360002344
:103D300000E0012318460837BD4680BD280000205A
:103D4000300000202C00002080B400AF064B1B7810
:103D50001A46064B1B681344044A136000BFBD4655
:103D60005DF8047B704700BF300000207405002020
:103D700080B400AF034B1B681846BD465DF8047B5A
:103D8000704700BF7405002080B584B000AF786034
:103D9000FFF7EEFFB8607B68FB60FB68B3F1FF3FA5
:103DA00005D00A4B1B781A46FB681344FB6000BF22
:103DB000FFF7DEFF0246BB68D31AFA689A42F7D8CB
:103DC00000BF00BF1037BD4680BD00BF30000020DF
:103DD00080B485B000AF78607B6803F00703FB60B8
:103DE0000C4BDB68BB60BA684FF6FF031340BB6047
:103DF000FB681A02BB68134343F0BF6343F400330C
:103E0000BB60044ABB68D36000BF1437BD465DF891
:103E1000047B704700ED00E080B400AF044BDB682A
:103E20001B0A03F007031846BD465DF8047B704784
:103E300000ED00E080B483B000AF0346FB7197F95A
:103E40000730002B0BDBFB7903F01F02074997F9C2
:103E500007305B09012000FA02F241F8232000BF7D
:103E60000C37BD465DF8047B704700BF00E100E001
:103E700080B483B000AF03463960FB7197F9073017
:103E8000002B0ADB3B68DAB20C4997F907301201C4
:103E9000D2B20B4483F800230AE03B68DAB2084947
:103EA000FB7903F00F03043B1201D2B20B441A76E4
:103EB00000BF0C37BD465DF8047B704700E100E0B1
:103EC00000ED00E080B489B000AFF860B9607A60BE
:103ED000FB6803F00703FB61FB69C3F10703042BD5
:103EE00028BF0423BB61FB690433062B02D9FB699D
:103EF000033B00E000237B614FF0FF32BB6902FA15
:103F000003F3DA43BB681A407B699A404FF0FF31F4
:103F10007B6901FA03F3D9437B680B4013431846CE
:103F20002437BD465DF8047B7047000080B582B041
:103F300000AF78607B68013BB3F1807F01D3012340
:103F40000FE00A4A7B68013B53600F214FF0FF30BE
:103F5000FFF78EFF054B00229A60044B07221A6080
:103F6000002318460837BD4680BD00BF10E000E0C2
:103F700080B582B000AF78607868FFF729FF00BF96
:103F80000837BD4680BD80B586B000AF0346B96036
:103F90007A60FB7300237B61FFF73EFF78617A68EC
:103FA000B9687869FFF78EFF024697F90F3011461E
:103FB0001846FFF75DFF00BF1837BD4680BD80B5CE
:103FC00082B000AF0346FB7197F907301846FFF740
:103FD00031FF00BF0837BD4680BD80B582B000AF5D
:103FE00078607868FFF7A2FF034618460837BD4699
:103FF00080BD80B584B000AF78607B689B6DFB604E
:10400000FFF7B6FEB8607B6893F83530DBB2022B61
:1040100008D07B6880225A657B68002283F83420B0
:10402000012352E07B681B681A687B681B6822F0DA
:1040300016021A607B681B685A697B681B6822F04D
:1040400080025A617B681B6C002B03D17B689B6CE0
:10405000002B07D07B681B681A687B681B6822F0FE
:1040600008021A607B681B681A687B681B6822F06C
:1040700001021A6013E0FFF77BFE0246BB68D31A09
:10408000052B0CD97B6820225A657B68032283F8B4
:1040900035207B68002283F83420032315E07B68F9
:1040A0001B681B6803F00103002BE4D17B68DB6D08
:1040B0003F229A40FB689A607B68012283F8352092
:1040C0007B68002283F83420002318461037BD4651
:1040D00080BD80B483B000AF78607B6893F83530E2
:1040E000DBB2022B04D07B6880225A6501230CE0EE
:1040F0007B68052283F835207B681B681A687B681B
:104100001B6822F001021A60002318460C37BD46D6
:104110005DF8047B7047000080B489B000AF786020
:10412000396000237B6100233B610023BB610023D6
:10413000FB6159E10122FB6902FA03F37B613B68F1
:104140001B687A6913403B613A697B699A4240F087
:1041500048813B685B6803F00303012B05D03B6893
:104160005B6803F00303022B30D17B689B68BB6163
:10417000FB695B00032202FA03F3DB43BA691340D5
:10418000BB613B68DA68FB695B0002FA03F3BA695A
:104190001343BB617B68BA699A607B685B68BB61EB
:1041A0000122FB6902FA03F3DB43BA691340BB61E6
:1041B0003B685B681B0903F00102FB6902FA03F329
:1041C000BA691343BB617B68BA695A603B685B6834
:1041D00003F00303032B17D07B68DB68BB61FB692B
:1041E0005B00032202FA03F3DB43BA691340BB61AD
:1041F0003B689A68FB695B0002FA03F3BA691343F0
:10420000BB617B68BA69DA603B685B6803F00303F3
:10421000022B23D1FB69DA087B68083253F822307D
:10422000BB61FB6903F007039B000F2202FA03F353
:10423000DB43BA691340BB613B681A69FB6903F051
:1042400007039B0002FA03F3BA691343BB61FB69DE
:10425000DA087B680832B96943F822107B681B686A
:10426000BB61FB695B00032202FA03F3DB43BA691B
:104270001340BB613B685B6803F00302FB695B00B2
:1042800002FA03F3BA691343BB617B68BA691A6027
:104290003B685B6803F44033002B00F0A2800023EE
:1042A000FB60574B5B6C564A43F480435364544B5A
:1042B0005B6C03F48043FB60FB68524AFB699B081C
:1042C000023352F82330BB61FB6903F003039B0008
:1042D0000F2202FA03F3DB43BA691340BB617B6828
:1042E000494A934219D07B68484A934213D07B686D
:1042F000474A93420DD07B68464A934207D07B6879
:10430000454A934201D1042308E0072306E0032332
:1043100004E0022302E0012300E00023FA6902F036
:10432000030292009340BA691343BB613549FB69AC
:104330009B080233BA6941F82320384B9B68BB6164
:104340003B69DB43BA691340BB613B685B6803F4BC
:104350008013002B03D0BA693B691343BB612F4A1A
:10436000BB6993602D4BDB68BB613B69DB43BA697A
:104370001340BB613B685B6803F40013002B03D060
:10438000BA693B691343BB61244ABB69D360234BC1
:104390005B68BB613B69DB43BA691340BB613B6847
:1043A0005B6803F40033002B03D0BA693B69134305
:1043B000BB611A4ABB695360184B1B68BB613B6900
:1043C000DB43BA691340BB613B685B6803F480332D
:1043D000002B03D0BA693B691343BB610F4ABB6929
:1043E0001360FB690133FB61FB690F2B7FF6A2AE03
:1043F00000BF00BF2437BD465DF8047B704700BF97
:104400000038024000380140000002400004024031
:1044100000080240000C024000100240003C014035
:1044200080B487B000AF7860396000233B6100231F
:10443000FB600023BB6000237B61BBE001227B6942
:1044400002FA03F33B613A683B691340FB60FA6888
:104450003B699A4240F0AB805C4A7B699B0802331F
:1044600052F82330BB607B6903F003039B000F22EB
:1044700002FA03F3BA681340BB607B68544A934264
:1044800019D07B68534A934213D07B68524A9342B7
:104490000DD07B68514A934207D07B68504A9342C3
:1044A00001D1042308E0072306E0032304E00223EC
:1044B00002E0012300E000237A6902F00302920087
:1044C0009340BA689A4232D1464B1A68FB68DB4384
:1044D000444913400B60434B5A68FB68DB43414936
:1044E00013404B603F4BDA68FB68DB433D491340A8
:1044F000CB603C4B9A68FB68DB433A4913408B60C6
:104500007B6903F003039B000F2202FA03F3BB60F5
:104510002E4A7B699B08023352F82310BB68DA43AA
:104520002A487B699B080A40023340F823207B68B5
:104530001A687B695B00032101FA03F3DB431A402D
:104540007B681A607B69DA087B68083253F82210AE
:104550007B6903F007039B000F2202FA03F3DB439E
:104560007A69D20819407B68083243F822107B68C8
:10457000DA687B695B00032101FA03F3DB431A402D
:104580007B68DA607B685A6801217B6901FA03F372
:10459000DB431A407B685A607B689A687B695B00E2
:1045A000032101FA03F3DB431A407B689A607B69BD
:1045B00001337B617B690F2B7FF640AF00BF00BFEB
:1045C0001C37BD465DF8047B704700BF00380140D2
:1045D000000002400004024000080240000C0240BB
:1045E00000100240003C014080B483B000AF78600E
:1045F0000B467B8013467B707B78002B03D07A8838
:104600007B689A6103E07B881A047B689A6100BF2B
:104610000C37BD465DF8047B7047000080B584B060
:1046200000AF78607B68002B01D101232BE17B6810
:1046300093F83D30DBB2002B06D17B68002283F873
:104640003C207868FFF778F87B68242283F83D20C7
:104650007B681B681A687B681B6822F001021A607D
:104660007B681B681A687B681B6842F400421A600A
:104670007B681B681A687B681B6822F400421A601A
:1046800003F050FCF8607B685B68814A934207D86E
:10469000FB68804A934294BF01230023DBB206E00B
:1046A000FB687D4A934294BF01230023DBB2002BB9
:1046B00001D00123E7E0FB68784AA2FB03239B0CAF
:1046C000BB607B681B685B6823F03F017B681B68ED
:1046D000BA680A435A607B681B681B6A23F03F0173
:1046E0007B685B686A4A934202D8BB68013309E081
:1046F000BB684FF4967202FB03F3694AA2FB0323E3
:104700009B0901337A6812680B4313627B681B684C
:10471000DB6923F44F4222F0FF027B685B685C494F
:104720008B4219D8FB68591E7B685B685B00B1FB44
:10473000F3F3591C40F6FC730B40002B0AD0FB68C6
:10474000591E7B685B685B00B1FBF3F30133C3F375
:104750000B0351E004234FE07B689B68002B11D1D1
:10476000FB68581E7B6859680B465B000B44B0FB26
:10477000F3F30133C3F30B03002B0CBF012300231E
:10478000DBB212E0FB68581E7B6859680B469B0041
:104790000B4499000B44B0FBF3F30133C3F30B0359
:1047A000002B0CBF01230023DBB2002B01D001231F
:1047B00022E07B689B68002B0ED1FB68581E7B684B
:1047C00059680B465B000B44B0FBF3F30133C3F3B2
:1047D0000B0343F400430FE0FB68581E7B685968E5
:1047E0000B469B000B4499000B44B0FBF3F30133E1
:1047F000C3F30B0343F44043796809681343CB6167
:104800007B681B681B6823F0C0017B68DA697B68E2
:104810001B6A1A437B681B680A431A607B681B6823
:104820009B6823F4034323F0FF037A6811697A68D5
:10483000D26811437A6812680B4393607B681B68E7
:10484000DB6823F0FF017B685A697B689B691A4328
:104850007B681B680A43DA607B681B681A687B68A0
:104860001B6842F001021A607B6800221A647B68B0
:10487000202283F83D207B6800221A637B68002297
:1048800083F83E20002318461037BD4680BD00BF88
:10489000A08601007F841E00FF083D0083DE1B43CD
:1048A000D34D621080B582B000AF78607B68002B7A
:1048B00001D1012321E07B68242283F83D207B681D
:1048C0001B681A687B681B6822F001021A6078680E
:1048D000FEF77AFF7B6800221A647B68002283F867
:1048E0003D207B6800221A637B68002283F83E200B
:1048F0007B68002283F83C20002318460837BD4619
:1049000080BD000080B588B002AFF8607A601A46BA
:104910000B467B8113463B81FFF72AFA7861FB68DF
:1049200093F83D30DBB2202B40F0E0807B690093B0
:10493000192301227049F86801F03CFA0346002B64
:1049400001D00223D3E0FB6893F83C30012B01D166
:104950000223CCE0FB68012283F83C20FB681B6843
:104960001B6803F00103012B07D0FB681B681A6862
:10497000FB681B6842F001021A60FB681B681A683A
:10498000FB681B6822F400621A60FB68212283F82E
:104990003D20FB68102283F83E20FB6800221A6449
:1049A000FB687A685A62FB683A895A85FB685B8DB6
:1049B0009AB2FB681A85FB68504ADA6279897B698A
:1049C0003A6AF86800F028FF0346002B01D0012363
:1049D0008DE000233B61FB681B685B693B61FB6802
:1049E0001B689B693B613B6966E07A69396AF868D4
:1049F00001F0FAFA0346002B0DD0FB681B6C042B68
:104A000007D1FB681B681A68FB681B6842F40072D8
:104A10001A6001236BE0FB685B6A1A78FB681B680D
:104A20001A61FB685B6A5A1CFB685A62FB685B8D03
:104A30009BB2013B9AB2FB685A85FB681B8D013B18
:104A40009AB2FB681A85FB681B685B6903F0040374
:104A5000042B1BD1FB681B8D002B17D0FB685B6AF6
:104A60001A78FB681B681A61FB685B6A5A1CFB6852
:104A70005A62FB685B8D9BB2013B9AB2FB685A8518
:104A8000FB681B8D013B9AB2FB681A857A69396A0B
:104A9000F86801F0F1FA0346002B0DD0FB681B6C9F
:104AA000042B07D1FB681B681A68FB681B6842F47B
:104AB00000721A6001231AE0FB681B8D002B94D151
:104AC000FB681B681A68FB681B6842F400721A6076
:104AD000FB68202283F83D20FB68002283F83E20FB
:104AE000FB68002283F83C20002300E002231846E4
:104AF0001837BD4680BD00BF020010000000FFFF58
:104B000080B58CB002AFF8607A601A460B467B81A4
:104B100013463B81FFF72CF97862FB6893F83D3030
:104B2000DBB2202B40F017827B6A0093192301220D
:104B30007C49F86801F03EF90346002B01D00223BE
:104B40000AE2FB6893F83C30012B01D1022303E217
:104B5000FB68012283F83C20FB681B681B6803F09C
:104B60000103012B07D0FB681B681A68FB681B68F0
:104B700042F001021A60FB681B681A68FB681B6838
:104B800022F400621A60FB68222283F83D20FB6851
:104B9000102283F83E20FB6800221A64FB687A68C2
:104BA0005A62FB683A895A85FB685B8D9AB2FB684A
:104BB0001A85FB685C4ADA6279897B6A3A6BF86825
:104BC00000F0ACFE0346002B01D00123C4E1FB68DA
:104BD0001B8D002B13D100233B62FB681B685B69B4
:104BE0003B62FB681B689B693B623B6AFB681B6816
:104BF0001A68FB681B6842F400721A6098E1FB684F
:104C00001B8D012B1BD1FB681B681A68FB681B6896
:104C100022F480621A600023FB61FB681B685B69F9
:104C2000FB61FB681B689B69FB61FB69FB681B6898
:104C30001A68FB681B6842F400721A6078E1FB682E
:104C40001B8D022B1BD1FB681B681A68FB681B6855
:104C500022F480621A60FB681B681A68FB681B6894
:104C600042F400621A600023BB61FB681B685B6949
:104C7000BB61FB681B689B69BB61BB6958E1FB6852
:104C80001B681A68FB681B6842F480621A60002384
:104C90007B61FB681B685B697B61FB681B689B69C8
:104CA0007B617B6944E1FB681B8D032B00F2F18083
:104CB000FB681B8D012B23D17A6A396BF86801F0F0
:104CC00023FA0346002B01D0012345E1FB681B6852
:104CD0001A69FB685B6AD2B21A70FB685B6A5A1C7D
:104CE000FB685A62FB681B8D013B9AB2FB681A8510
:104CF000FB685B8D9BB2013B9AB2FB685A8517E15A
:104D0000FB681B8D022B4ED17B6A00933B6B00220C
:104D10000649F86801F04EF80346002B08D001233D
:104D20001AE100BF020010000000FFFF04000100B4
:104D3000FB681B681A68FB681B6842F400721A6003
:104D4000FB681B681A69FB685B6AD2B21A70FB6861
:104D50005B6A5A1CFB685A62FB681B8D013B9AB266
:104D6000FB681A85FB685B8D9BB2013B9AB2FB68BE
:104D70005A85FB681B681A69FB685B6AD2B21A70B5
:104D8000FB685B6A5A1CFB685A62FB681B8D013B1F
:104D90009AB2FB681A85FB685B8D9BB2013B9AB2A5
:104DA000FB685A85C4E07B6A00933B6B00226C4928
:104DB000F86800F0FFFF0346002B01D00123CBE091
:104DC000FB681B681A68FB681B6822F480621A6023
:104DD000FB681B681A69FB685B6AD2B21A70FB68D1
:104DE0005B6A5A1CFB685A62FB681B8D013B9AB2D6
:104DF000FB681A85FB685B8D9BB2013B9AB2FB682E
:104E00005A857B6A00933B6B00225549F86800F095
:104E1000D1FF0346002B01D001239DE0FB681B68F6
:104E20001A68FB681B6842F400721A60FB681B6812
:104E30001A69FB685B6AD2B21A70FB685B6A5A1C1B
:104E4000FB685A62FB681B8D013B9AB2FB681A85AE
:104E5000FB685B8D9BB2013B9AB2FB685A85FB688D
:104E60001B681A69FB685B6AD2B21A70FB685B6ADE
:104E70005A1CFB685A62FB681B8D013B9AB2FB68A7
:104E80001A85FB685B8D9BB2013B9AB2FB685A8521
:104E90004EE07A6A396BF86801F036F90346002B68
:104EA00001D0012358E0FB681B681A69FB685B6A44
:104EB000D2B21A70FB685B6A5A1CFB685A62FB68C4
:104EC0001B8D013B9AB2FB681A85FB685B8D9BB218
:104ED000013B9AB2FB685A85FB681B685B6903F06B
:104EE0000403042B24D1FB681B8D032B07D1FB6823
:104EF0001B681A68FB681B6822F480621A60FB68F2
:104F00001B681A69FB685B6AD2B21A70FB685B6A3D
:104F10005A1CFB685A62FB681B8D013B9AB2FB6806
:104F20001A85FB685B8D9BB2013B9AB2FB685A8580
:104F3000FB681B8D002B7FF4B6AEFB68202283F844
:104F40003D20FB68002283F83E20FB68002283F8A6
:104F50003C20002300E0022318462837BD4680BDD0
:104F60000400010080B588B002AFF8600846114621
:104F70001A4603467B810B463B811346FB80FEF7B6
:104F8000F7FE7861FB6893F83D30DBB2202B40F0F0
:104F9000D9807B690093192301226D49F86800F0DC
:104FA00009FF0346002B01D00223CCE0FB6893F8F5
:104FB0003C30012B01D10223C5E0FB68012283F8BC
:104FC0003C20FB681B681B6803F00103012B07D022
:104FD000FB681B681A68FB681B6842F001021A60D4
:104FE000FB681B681A68FB681B6822F400621A6081
:104FF000FB68212283F83D20FB68402283F83E2095
:10500000FB6800221A64FB683A6A5A62FB68BA8C31
:105010005A85FB685B8D9AB2FB681A85FB684D4A1E
:10502000DA62F8883A8979897B690193BB6A0093CF
:105030000346F86800F040FD0346002B52D00123E0
:1050400081E07A69B96AF86800F0CEFF0346002B68
:105050000DD0FB681B6C042B07D1FB681B681A681A
:10506000FB681B6842F400721A6001236BE0FB6866
:105070005B6A1A78FB681B681A61FB685B6A5A1CDA
:10508000FB685A62FB681B8D013B9AB2FB681A856C
:10509000FB685B8D9BB2013B9AB2FB685A85FB684B
:1050A0001B685B6903F00403042B1BD1FB681B8D99
:1050B000002B17D0FB685B6A1A78FB681B681A61C3
:1050C000FB685B6A5A1CFB685A62FB681B8D013BDC
:1050D0009AB2FB681A85FB685B8D9BB2013B9AB262
:1050E000FB685A85FB681B8D002BAAD17A69B96AC7
:1050F000F86800F0C1FF0346002B0DD0FB681B6C65
:10510000042B07D1FB681B681A68FB681B6842F414
:1051100000721A60012316E0FB681B681A68FB68BE
:105120001B6842F400721A60FB68202283F83D205D
:10513000FB68002283F83E20FB68002283F83C20B5
:10514000002300E0022318461837BD4680BD00BF8B
:10515000020010000000FFFF80B58CB002AFF860C5
:10516000084611461A4603467B810B463B8113468F
:10517000FB80FEF7FDFD7862FB6893F83D30DBB203
:10518000202B40F014827B6A0093192301227B4973
:10519000F86800F00FFE0346002B01D0022307E25F
:1051A000FB6893F83C30012B01D1022300E2FB683D
:1051B000012283F83C20FB681B681B6803F0010395
:1051C000012B07D0FB681B681A68FB681B6842F05C
:1051D00001021A60FB681B681A68FB681B6822F4EE
:1051E00000621A60FB68222283F83D20FB6840229F
:1051F00083F83E20FB6800221A64FB683A6B5A620F
:10520000FB68BA8E5A85FB685B8D9AB2FB681A857B
:10521000FB685B4ADA62F8883A8979897B6A01938C
:10522000BB6B00930346F86800F0DCFC0346002BE0
:1052300001D00123BCE1FB681B8D002B13D100239F
:105240003B62FB681B685B693B62FB681B689B6990
:105250003B623B6AFB681B681A68FB681B6842F488
:1052600000721A6090E1FB681B8D012B1BD1FB685B
:105270001B681A68FB681B6822F480621A600023AE
:10528000FB61FB681B685B69FB61FB681B689B69D2
:10529000FB61FB69FB681B681A68FB681B6842F4CA
:1052A00000721A6070E1FB681B8D022B1BD1FB683A
:1052B0001B681A68FB681B6822F480621A60FB682E
:1052C0001B681A68FB681B6842F400621A600023BE
:1052D000BB61FB681B685B69BB61FB681B689B6902
:1052E000BB61BB6950E100237B61FB681B685B69A4
:1052F0007B61FB681B689B697B617B6944E1FB68A0
:105300001B8D032B00F2F180FB681B8D012B23D139
:105310007A6AB96BF86800F0F7FE0346002B01D0FB
:10532000012345E1FB681B681A69FB685B6AD2B21E
:105330001A70FB685B6A5A1CFB685A62FB681B8D1B
:10534000013B9AB2FB681A85FB685B8D9BB2013BFF
:105350009AB2FB685A8517E1FB681B8D022B4ED170
:105360007B6A0093BB6B00220649F86800F022FDBF
:105370000346002B08D001231AE100BF02001000F1
:105380000000FFFF04000100FB681B681A68FB684F
:105390001B6842F400721A60FB681B681A69FB689C
:1053A0005B6AD2B21A70FB685B6A5A1CFB685A626D
:1053B000FB681B8D013B9AB2FB681A85FB685B8D0D
:1053C0009BB2013B9AB2FB685A85FB681B681A695D
:1053D000FB685B6AD2B21A70FB685B6A5A1CFB6896
:1053E0005A62FB681B8D013B9AB2FB681A85FB6809
:1053F0005B8D9BB2013B9AB2FB685A85C4E07B6A25
:105400000093BB6B00226C49F86800F0D3FC0346A4
:10541000002B01D00123CBE0FB681B681A68FB68F6
:105420001B6822F480621A60FB681B681A69FB68BB
:105430005B6AD2B21A70FB685B6A5A1CFB685A62DC
:10544000FB681B8D013B9AB2FB681A85FB685B8D7C
:105450009BB2013B9AB2FB685A857B6A0093BB6B97
:1054600000225549F86800F0A5FC0346002B01D046
:1054700001239DE0FB681B681A68FB681B6842F407
:1054800000721A60FB681B681A69FB685B6AD2B21B
:105490001A70FB685B6A5A1CFB685A62FB681B8DBA
:1054A000013B9AB2FB681A85FB685B8D9BB2013B9E
:1054B0009AB2FB685A85FB681B681A69FB685B6ACD
:1054C000D2B21A70FB685B6A5A1CFB685A62FB68AE
:1054D0001B8D013B9AB2FB681A85FB685B8D9BB202
:1054E000013B9AB2FB685A854EE07A6AB96BF8685C
:1054F00000F00AFE0346002B01D0012358E0FB68B0
:105500001B681A69FB685B6AD2B21A70FB685B6A37
:105510005A1CFB685A62FB681B8D013B9AB2FB6800
:105520001A85FB685B8D9BB2013B9AB2FB685A857A
:10553000FB681B685B6903F00403042B24D1FB6840
:105540001B8D032B07D1FB681B681A68FB681B685F
:1055500022F480621A60FB681B681A69FB685B6A48
:10556000D2B21A70FB685B6A5A1CFB685A62FB680D
:105570001B8D013B9AB2FB681A85FB685B8D9BB261
:10558000013B9AB2FB685A85FB681B8D002B7FF4A8
:10559000B6AEFB68202283F83D20FB68002283F82A
:1055A0003E20FB68002283F83C20002300E0022319
:1055B00018462837BD4680BD0400010080B58AB07A
:1055C00002AFF8607A603B600B467B81FEF7D0FB50
:1055D000F8610023BB61FB6893F83D30DBB2202B00
:1055E00040F01181FB690093192301228849F86872
:1055F00000F0E0FB0346002B01D0022304E1FB682E
:1056000093F83C30012B01D10223FDE0FB6801221D
:1056100083F83C20FB681B681B6803F00103012B27
:1056200007D0FB681B681A68FB681B6842F0010220
:105630001A60FB681B681A68FB681B6822F400622A
:105640001A60FB68242283F83D20FB6800221A645C
:10565000FB68704ADA62FB681B681A68FB681B68A3
:1056600042F480721A60FB6900933B6800224FF09D
:105670000111F86800F09EFB0346002B0DD0FB687B
:105680001B681B6803F48073B3F5807F03D1FB684C
:105690004FF400721A640323B6E07B89DBB21A462A
:1056A000FB681B6802F0FE021A61FEF761FBF861FD
:1056B000FB681B685B6903F00203022B0CBF01232C
:1056C0000023DBB2FB75FB681B685B6903F4806336
:1056D000B3F5806F0CBF01230023DBB2BB7525E05F
:1056E000FEF746FB0246FB69D31A3A689A4202D398
:1056F0003B68002B03D1FB68A02283F83D20FB68A8
:105700001B685B6903F00203022B0CBF012300231B
:10571000DBB2FB75FB681B685B6903F48063B3F560
:10572000806F0CBF01230023DBB2BB75FB6893F8CD
:105730003D30DBB2A02B05D0FB7D002B02D1BB7D21
:10574000002BCDD0FB68202283F83D20FB681B682E
:105750005B6903F00203022B29D1FB681B681A68FE
:10576000FB681B6842F400721A6000233B61FB680F
:105770001B685B693B61FB681B689B693B613B691C
:10578000FB690093192301222149F86800F012FBFC
:105790000346002B01D0012336E0FB68202283F86A
:1057A0003D20FB68002283F83C2000232CE0FB68AE
:1057B0001B681A68FB681B6842F400721A60FB6879
:1057C0001B686FF480625A61FB6900931923012200
:1057D0000F49F86800F0EEFA0346002B01D00123D0
:1057E00012E0BB690133BB61BA697B689A42FFF47E
:1057F00032AFFB68202283F83D20FB68002283F84B
:105800003C20012300E0022318462037BD4680BD1E
:10581000020010000000FFFF80B588B002AFF86002
:105820007A603B600B467B81FB68DB6A7B617B694E
:10583000082B06D07B69012B03D07B6913F5803FD1
:1058400008D1FB681B681A68FB681B6842F4807209
:105850001A600BE0FB681B6B122B07D1FB681B68FF
:105860001A68FB681B6842F480721A603B680093F8
:105870007B6800224FF00111F86800F09BFA0346A4
:10588000002B0DD0FB681B681B6803F48073B3F515
:10589000807F03D1FB684FF400721A64032335E064
:1058A000FB681B69B3F5804F08D17B89DBB21A46D0
:1058B000FB681B6802F0FE021A611BE07B89DB11AA
:1058C000DBB203F00603DBB263F00F03DAB2FB686E
:1058D0001B681A613B687A680E49F86800F0E4FAC0
:1058E0000346002B01D0012310E07B89DAB2FB686C
:1058F0001B681A613B687A680749F86800F0D4FAB7
:105900000346002B01D0012300E00023184618377E
:10591000BD4680BD080001000200010080B588B0CE
:1059200002AFF8607A603B600B467B81FB68DB6A04
:105930007B61FB681B681A68FB681B6842F4806225
:105940001A607B69082B06D07B69012B03D07B6929
:1059500013F5803F08D1FB681B681A68FB681B6859
:1059600042F480721A600BE0FB681B6B112B07D1AD
:10597000FB681B681A68FB681B6842F480721A6037
:105980003B6800937B6800224FF00111F86800F03B
:1059900011FA0346002B0DD0FB681B681B6803F44B
:1059A0008073B3F5807F03D1FB684FF400721A64F3
:1059B000032379E0FB681B69B3F5804F08D17B892D
:1059C000DBB243F00103DAB2FB681B681A615FE0E7
:1059D0007B89DB11DBB203F00603DBB263F00F035C
:1059E000DAB2FB681B681A613B687A683049F8686C
:1059F00000F05AFA0346002B01D0012354E07B89C2
:105A0000DAB2FB681B681A613B687A682949F86852
:105A100000F04AFA0346002B01D0012344E00023A2
:105A20003B61FB681B685B693B61FB681B689B69AA
:105A30003B613B69FB681B681A68FB681B6842F4A2
:105A400080721A603B6800937B6800224FF001115E
:105A5000F86800F0AFF90346002B0DD0FB681B6817
:105A60001B6803F48073B3F5807F03D1FB684FF4A8
:105A700000721A64032317E07B89DB11DBB203F0A9
:105A80000603DBB263F00E03DAB2FB681B681A612F
:105A90003B687A680749F86800F006FA0346002B6D
:105AA00001D0012300E0002318461837BD4680BD11
:105AB000080001000200010080B588B002AFF86064
:105AC000084611461A4603467B810B463B81134626
:105AD000FB80FB681B681A68FB681B6842F48072D5
